:100000000C9401050C9429050C9429050C942905E0
:100010000C9429050C9429050C9429050C942905A8
:100020000C9429050C9429050C9429050C94DE12D6
:100030000C9429050C9429050C9429050C94290588
:100040000C944F120C9429050C9429050C94290545
:100050000C9429050C9429050C9429050C94290568
:100060000C9429050C942905561B591B5C1B5F1B1E
:10007000621B651B681B6B1B6E1B686F6C64000347
:100080000307050705040505040503060302070227
:100090000201020203020E090E0E0D0E0E0F0E07D4
:1000A0000507050307050F050705070607010205F4
:1000B000020007020207000207020002070200070F
:1000C00006030607070202050502010202040200F8
:1000D00005020205000607050507050203020206E0
:1000E00002000000000B00030003070507040701DE
:1000F00005020507070400030000070505070005C2
:100100000005020702000C000202020004000402C3
:100110000107050705070401070405070203020795
:100120000407010706060101070707070303070085
:100130000500000D00020500050505000502010788
:10014000030F090306030607070202050507070256
:10015000070705070301070506070207050705044A
:100160000403070205070404070307070106070540
:100170000707030307050307030604070101070137
:10018000070407030403070607050205010601012A
:100190000704000705010204050700020102080820
:1001A000080003000603060707020205050705020B
:1001B00007070507030107050607020705070504EA
:1001C00004030702050704040703070701060705E0
:1001D00007070303070503070306040701010701D7
:1001E00007040703040307060705020501060101CA
:1001F00007040207050007000507020602030705BA
:1002000007101600007FFE400240024002400240FC
:100210000240024002408241C243E247F24FFA4F9D
:10022000FA46B2408241C243E240027FFE00001023
:100230001600007FFE4002400240024002400240A1
:100240000240024002400247724FFA4FFA4FFA470B
:10025000F243E241C2408240027FFE0000101600DD
:10026000007FFE4002400240024002400240024045
:10027000024002408241C243E247F24FFA47F24352
:10028000E241C2408240027FFE0000101600007F63
:10029000FE40024002400240024002400240024151
:1002A000C243E243E241C247F24FFA4FFA4FFA46E5
:1002B000B241C240027FFE000041004B0051004AA3
:1002C00000101600007FFE6AAA55566AAA55566AA3
:1002D000AA55566AAA55566AAA55566AAA55566A22
:1002E000AA55566AAA55566AAA55567FFE000010AE
:1002F00016FFFF8001800180018001800180018064
:1003000001800180018001800180018001800180E5
:100310000180018001800180018001FFFF20576F73
:100320006E202400426574202400526F79616C2095
:10033000666C757368210053747261696768742014
:10034000666C7573682100466F7572206F66206158
:10035000206B696E64210046756C6C20486F757364
:10036000652100466C75736821005374726169677A
:10037000687421005468726565206F662061206B87
:10038000696E64210054776F207061697221004AA0
:1003900061636B73206F72206265747465722100F3
:1003A000413A486F6C642020423A447261770055AC
:1003B000702F446F776E3A4265742020423A44654C
:1003C000616C00204265743A20240042616E6B3AF1
:1003D000202400423A204E65772047616D65004138
:1003E0003A205469746C652053637265656E0047EA
:1003F0002041204D204520204F20562045205200EE
:10040000433A204261636B00413A20507265762086
:10041000506167650000004A61636B73206F722052
:100420004265747465723A312A4265740054776F7C
:1004300020506169723A322A4265740054687265CC
:1004400065206F662061204B696E643A332A4265ED
:10045000740053747261696768743A342A4265742F
:1004600000433A204261636B00413A204E65787444
:1004700020506167650000466C7573683A362A4201
:1004800065740046756C6C20486F7573653A392A3F
:1004900042657400466F7572206F662061204B695B
:1004A0006E643A32352A426574005374726169672A
:1004B000687420466C7573683A35302A426574005A
:1004C000526F79616C20466C7573683A3235302A08
:1004D00042657400433A20526573756D652047612B
:1004E0006D6500423A2053686F772048616E642042
:1004F000496E666F00413A205469746C65205363FD
:100500007265656E005020412055205320452044DF
:1005100000450068010000F6E8DBCFC3B8AEA49B3D
:10052000928A827B746E68625C57524E4945413EA6
:100530003A3734312E2C29272523210A0A153A4926
:10054000676E6F7265006D560A0A504C45415345FF
:10055000205455524E204F464620004C4F572042C3
:1005600041545445525921200003053F213F1208B0
:10057000120A100A0E1C0E0C1E0C141A14161F164A
:100580001E131E1E1B1E1E1F1E3F213F3A2F3A1711
:100590003D173F213F181F02040A041F0E04040EDA
:1005A0001F0A1F0A0E0E1F04110E2E252E2F2A2E93
:1005B000262929021F02081F08150E04040E150E15
:1005C00015151B151B040604040C0400000000177D
:1005D000000300031F0A1F16371A1904130A153ADD
:1005E000000300000E11110E000A040A040E04009C
:1005F00030000404040010001804031F111F121F10
:10060000101D151711151F07041F17151D1F151D88
:1006100001011F1F151F17151F000A0000320004DB
:100620000A110A0A0A110A040115020E11171E0501
:100630001E1F150A0E110A1F110E1F15111F05018D
:100640000E111D1F041F111F1108100F1F041B1F67
:1006500010101F061F1E040F0E110E1F09060E118B
:100660002E1F051A121509011F011F101F0F180F49
:100670001F0C1F1B041B031C03191513001F110360
:100680000418111F000201022020200001020C1298
:100690001E1F120C0C12120C121F0C1A14041E0531
:1006A000242A1E1F021C141D1020201D1F081411B7
:1006B0001F101E041E1E021C0C120C3E0A040C12FB
:1006C0003E1E040214160A020F120E101E0E100E09
:1006D0001E081E120C1226281E322A26041E210075
:1006E0001F00211E040102013F213F172B1520107E
:1006F000204C4F4144455200172B16201314000183
:1007000001FF030101F7030307FF06050089300815
:1007100002380249786814000005003801680100B9
:1007200000175344001613780016131400151020F8
:100730000015201000540A03E181867F3E186D8366
:100740000F0F0E0183866033186DC3198F1803C312
:100750008E6033186DE330CF1803C39E603630CD02
:10076000E360CF3006C79E7E3E30CDB360CF300C05
:10077000C6F6603330D9B660CF33CFCCF66061B007
:10078000DB1E60CF30D86CE6C061B0DB1E618F1914
:10079000986CC6C063B19B0E330F0FB078C6FF7E56
:1007A0001F1B061E0F004830000000000000000064
:1007B0000000000000000000000000181000000011
:1007C0000800001118100001E008000013003000BC
:1007D00001B01800001271F38E01B39B38F01211B2
:1007E00024D30134DC4C801C332FF301ECDCFD807E
:1007F0001C336C32030C96C1001CF9E79C030732D2
:10080000790000000000000000000000000000006F
:10081000000000007FFE0000000000000040020019
:10082000000000000000480200000000000000542A
:1008300002000000000000005C0200000000000058
:100840000054026000804200000054028CCDCCC3F2
:10085000280000400289949942B80000408268CC88
:100860008CC308000041C20000000030000043E2D9
:100870000000000000000047F28A801810C000004D
:100880004FFAD8A614D0A4EE404FFAAACC1590CABD
:1008900044A046B28AA618D084EE404082000000F0
:1008A0000000000041C20000000000000043E20020
:1008B0000000000000004002000000000000007F77
:1008C000FE0000000000000000000000000000002A
:1008D0000000000000000000000000000000000018
:1008E0000000000000000000000000000000000008
:1008F00000000000000000000000000000000000F8
:1009000000000000000000000000000000000000E7
:1009100000000000000000000000000000000000D7
:1009200000000000000000000000000000000000C7
:1009300000000000000000000000000000000000B7
:1009400000000000000000000000000000000000A7
:10095000000000000000000000000000240027004C
:100960002A0000000000250028002B000A4E6F20FE
:1009700053442063617264206F720A6E6F204C4F83
:10098000414445522E4845580A0A153A457869743B
:10099000001D20466C617368696E670A20206C6FC9
:1009A000616465722E2E2E0A0A444F4E275420543D
:1009B00055524E204F4646210000000000230026DD
:1009C00000290004040404040404040202020202D4
:1009D0000203030303030301020408102040800103
:1009E0000204081020010204081020000000080082
:1009F00002010000030407000000000000000000E6
:100A0000141811241FBECFEFD8E0DEBFCDBF11E018
:100A1000A0E0B1E0E2E2F7E402C005900D92A83F49
:100A2000B107D9F725E0A8EFB1E001C01D92A93BBD
:100A3000B207E1F715E0C1E0D5E004C02197FE015F
:100A40000E948923C030D107C9F70E941F180C9457
:100A50008F230C940000FC0180819181FB01208197
:100A60003181821B930B0895FC01643508F053C05B
:100A7000403308F050C090A1742F75957595759509
:100A8000262F062E000C330B542F57709230A1F4F2
:100A9000F901E15DFC4F84E57802E00DF11D1124C0
:100AA000808190E0052E02C0959587950A94E2F723
:100AB0008095982F91700AC0933041F4848581709D
:100AC000462740954170841303C014C0911112C091
:100AD00084E57802200D311D1124F901E15DFC4F00
:100AE00081E090E001C0880F5A95EAF780959081E7
:100AF000892310C084E57802200D311D1124F901ED
:100B0000E15DFC4F81E090E001C0880F5A95EAF763
:100B10009081892B80830895E0910E03F0910F035B
:100B20009081E0911003F09111038081981315C01A
:100B3000E0911203F0911303808198130EC0E091AD
:100B40001403F09115038081981307C0E0911603F8
:100B5000F091170381E02081921380E00895409185
:100B60000202509103022091000230910102C9015A
:100B7000019648175907D9F48091FE019091FF0121
:100B8000BC016F5F7F4F2617370789F46091FC0126
:100B90007091FD01FB0131968E179F0741F4809102
:100BA000FA019091FB01019668177907D1F04E3058
:100BB0005105C9F48091FA019091FB01029799F4D3
:100BC0008091FC019091FD01039769F48091FE01F1
:100BD0009091FF01049739F481E02530310519F433
:100BE00003C081E0089580E00895109219031092E7
:100BF00018031092F9011092F80189E090E09093A7
:100C000005028093040210920F0310920E031092BB
:100C100011031092100310921303109212031092FA
:100C20001503109214031092170310921603E8E0B4
:100C3000F2E0108212821182359683E0EC30F807E0
:100C4000C1F70895DF92EF92FF920F931F93CF9316
:100C5000DF93809118039091190383309105B1F0CF
:100C600054F48130910569F00297C1F42FEE32E01F
:100C70004EE062E10FC084309105D9F00597F1F0A4
:100C80000DC02FEE32E04EE062E004C02FEE32E005
:100C90004EE062E280E895E00E943C138EE0E82E90
:100CA00083E0F82E00E010E0C2E0D1E195E2D92E19
:100CB0003BC02FEE32E04EE062E3ECCF2FEE32E0AD
:100CC0004EE062E4E7CF838194811816190694F50B
:100CD00001979483838321EC32E04EE06C2F80E80F
:100CE00095E00E943C13D701ED91FC9183819481A2
:100CF000019721F485E091E00E9481150F5F1F4F5D
:100D00000530110509F48AC00330110509F480C0CB
:100D10000430110509F47EC00230110509F07CC0D1
:100D2000C2E282E0E80EF11CD701ED91FC91309710
:100D300051F665C0D0938A0583E08C0F80938905B6
:100D400041814B30C8F04C3069F028F44B30E1F46D
:100D50006FEB72E009C04D3061F04E30A9F469EBE1
:100D600072E002C06DEB72E080E895E00E94AD1089
:100D70000BC06BEB72E0F8CF50E060E070E02AE06F
:100D800080E895E00E945D10D701ED91FC91808193
:100D9000813059F038F0823059F0833089F421E005
:100DA00032E008C02BE832E005C02DE532E002C099
:100DB0002FE232E04EE06C2F80E895E00E943C1379
:100DC000D701ED91FC918281823009F097CF6FE7D6
:100DD00070E080E895E00E942813D0928A05CF5FEA
:100DE000C09389056AE770E080E895E00E94AD1045
:100DF00069E675E080E895E00E9428137FCF21EC3A
:100E000032E04EE06C2F80E895E00E943C1376CFF4
:100E1000C2E387CFC2E485CFC2E183CFDF91CF9118
:100E20001F910F91FF90EF90DF9008959F92AF92E6
:100E3000BF92CF92DF92EF92FF920F931F93CF93C7
:100E4000DF93F82EE62EB22E03E0020FD0E0C3E0CF
:100E50008AEFC82E1EEF842F8170982EAA24A394A7
:100E6000A20E4270D42EDF5F802F8B19180F9920AD
:100E700081F04C2F440F4A0D6E2D6C1B8D2F8F0D62
:100E80000E94FC17402F6E2D6D1B8C2F8F0D0E9422
:100E9000FC17DD2081F04C2F440F4A0D6E2D6C1B8A
:100EA0008F2D8D1B0E94FC17402F6E2D6D1B8F2DDB
:100EB0008C1B0E94FC17DC1744F417FD04C0C150C2
:100EC000C394C3941C0D0E5FCECFDF91CF911F91C1
:100ED0000F91FF90EF90DF90CF90BF90AF909F90D9
:100EE000089580914E0590914F05892BB1F1809125
:100EF00056058F7169F584E10E94D911BC01990FE3
:100F0000880B990B0E94602226EE3FE34EEC50E4E2
:100F10000E94C4220E942F229B0170934D05609372
:100F20004C05672B91F084E080934B05EEE4F5E0EF
:100F300080E0419151912417350718F480934B05B7
:100F400008958F5F8430A9F703C08FEF80934B051E
:100F5000809156058F5F8093560508954F925F925A
:100F60006F927F928F929F92AF92BF92CF92DF92B9
:100F7000EF92FF920F931F93CF93DF9300D000D097
:100F80001F92CDB7DEB74091B2055091B305609185
:100F9000B4057091B5052FB7F89480912403909112
:100FA0002503A0912603B09127032FBF481B590B9F
:100FB0006A0B7B0B8091B10590E0A0E0B0E000915E
:100FC000AD051091AE052091AF053091B0058417A5
:100FD0009507A607B70730F401151105210531055E
:100FE00009F03BC3012B022B032B09F034C3809182
:100FF000490581508E3FC0F5809148058130C9F583
:1010000080915C058F5F60915D0587FD09C0082EAA
:10101000000C990B70E06F5F7F4F0E947523682F63
:1010200060935C0588EF96E09093B7058093B605D2
:1010300088E48093B80580E00E94111681E195E074
:10104000909365058093640510926A051092690576
:1010500081E08093580589E080936D0510927005BA
:1010600010927205109274058091490581508E3F4F
:1010700070F480914705813009F09BC38BEE96E0B8
:101080009093B7058093B60588E48093B80580E017
:101090000E94141780915805882309F4ADC08091EF
:1010A0006C058111A9C08091640590916505E0915E
:1010B0006905F0916A05EE0FFF1FE80FF91F2591F2
:1010C000349121153105F1F420916805222331F086
:1010D00010926A0510926905FC0112C01092580521
:1010E00080915705882341F080E00E941417E09119
:1010F0006905F0916A052DC080E00E94FC157CC056
:1011000025913491C901969587959695879520FFED
:1011100053C0B90116E0769567951A95E1F76F719E
:10112000932F96959695969590518F70823081F178
:1011300008F5811117C06B3008F06AE060936D0507
:10114000E0916905F0916A053196F0936A05E093A4
:101150006905EE0FFF1F8091640590916505E80F0A
:10116000F91FCECF813061F740E087E595E00E941E
:101170009912E6CF8330B1F0843011F780915B058E
:10118000689F602D11246093740590937505D8CFE6
:1011900080915B05689F602D11246093700590938A
:1011A0007105CECF80915B05689F602D11246093FF
:1011B000720590937305C4CF8F7380936B058091F4
:1011C0005B05839F802D112480936C0510927C0514
:1011D00010927B0510927A0581E080936E058093D2
:1011E000310510926F058091690590916A0501960D
:1011F00090936A058093690580916E05882309F4B0
:10120000EEC080916C05811103C00E94FC15E7C0FF
:10121000815080936C0580917C05811146C020919E
:101220007A0530917B052F5F3F4FC901880F991FC9
:10123000E0917605F0917705E80FF91F65917491BB
:10124000862F877080937D05AB01E3E05695479527
:10125000EA95E1F7CA0196958795972F9695969509
:1012600090937E058F7390915B05899F802D11244B
:1012700080937C0541704093230330937B0520933A
:101280007A058091780590E02817390770F0209151
:101290007905222339F0821B910990937B05809375
:1012A0007A0503C080E00E94FC1580917C05815086
:1012B00080937C0580916F0521E0280F20936F05B6
:1012C00040916B0530917E05340F80916305380F96
:1012D0003093590560917205662371F070E0822F9A
:1012E000022E000C990B0E94752380917305869F36
:1012F000300D1124309359058091590590E0849662
:1013000064E270E00E9475238093590530916D0569
:1013100030935A0560917005662381F0062E000C0B
:10132000770B822F022E000C990B0E94752380915F
:101330007105869F300D112430935A056091740514
:101340006623A1F0822F220F990B70E00E94752373
:10135000CB0162E070E00E947523209175059091A9
:101360005A05289F900D112490935A0580915A0593
:101370004F3341F08A300CF089E087FD80E08093A4
:101380005A0502C010925A05F894E0915905F0E010
:10139000E95EFA4FE491E093220330915A052091DF
:1013A0007F0532039001112440917D054203C00165
:1013B000439F900D112400905C0502C0880F991F77
:1013C0000A94E2F797FF02C081589F4F880F892F38
:1013D000881F990B80932F05809330057894809116
:1013E000B805882309F48FC08C3020F49CE0E92EE6
:1013F000E81A01C0E12CFF24F394F09288051092C2
:10140000A0051092A105309185054DE2D42E1D2D29
:10141000131B1E0D03E0030F2EE4412F63E080E851
:1014200095E03D830E947E143D810CEF030F1D5F0C
:10143000202F41E0612F80E50E941607202F42E017
:10144000612F83E00E941607F092A005F092A1059B
:101450000091850513E0100FD01ADE0C23E04D2D0E
:10146000622F80E895E02D830E9434052D812F5F47
:101470002135A9F71D0DFF24FA94F10E23E04F2D1D
:10148000622F80E895E02D830E9434052D812F5F27
:101490002135A9F7035033E0D30E402F6D2D80E0A6
:1014A0000E94FC17402F6D2D83E50E94FC1741E040
:1014B0006D2D83E00E947E1742E06D2D80E50E9435
:1014C0007E17145044E0612F80E50E947E1748E0AB
:1014D000612F83E00E947E1784E0809389058091CC
:1014E0008505E81A8E2D815D80938A056091B60589
:1014F0007091B70580E895E00E94AD108091B80525
:1015000081508093B80580914E0590914F05892BAD
:1015100009F479C011E01093A0051092A1059091F3
:10152000840585E5891B8093890510928A05609161
:101530004B05613009F448C030F080914A056530B0
:1015400008F05AC055C080E00E941116109388051B
:1015500069E675E080E895E00E94281310924F0537
:1015600010924E051092860518EA0E94AE07882355
:10157000E1F36BE575E080E895E00E94AD104091E5
:101580004C0550914D0560E070E02AE080E895E060
:101590000E945D1066E475E080E895E00E94AD1061
:1015A000612F62956F7070E080E895E00E94C6152B
:1015B0006BE375E080E895E00E94AD1080914705EF
:1015C000813009F0FCC01FC08091A3059091A40553
:1015D000A091A505B091A6058F709927AA27BB27D2
:1015E0000897A105B10510F467E009C068E707C0D6
:1015F000882349F06B5F03C0882329F06FE280E8FD
:1016000095E00E94A6100E949B168091860581118C
:101610000EC088EF91E0EFE2F3E0DF019C011D9244
:1016200021503040E1F71092890510928A050E94FE
:10163000F0116093AD057093AE058093AF05909364
:10164000B0052091A9053091AA05621B730B709318
:10165000A8056093A70580E0CCC02FB7F8948091CF
:10166000240390912503A0912603B09127032FBF57
:101670002091B105820F911DA11DB11D8093B2056E
:101680009093B305A093B405B093B5058091A305DD
:101690009091A405A091A505B091A6050196A11D64
:1016A000B11D8093A3059093A405A093A505B093C5
:1016B000A6051092AD051092AE051092AF051092DE
:1016C000B0050E94F0116093A9057093AA0580935C
:1016D000AB059093AC0580913305909134052FE0D4
:1016E000289F8001299F100D112485E10E94D911A6
:1016F000800F911F24E0969587952A95E1F79093A6
:1017000034058093330520913205222309F44BC020
:1017100060913605262F30E040E050E029833A837F
:101720004B835C83C0903705D12CE12CF12C409188
:101730003A0550913B054A01A12CB12C2091380566
:10174000309139052901612C712C8217930728F0FB
:101750009C014817590708F49A01C901A0E0B0E0BC
:101760009C01AD01241935094609570969817A811F
:101770008B819C816C197D098E099F090E945923D8
:10178000A501940124193509460957090E9495219C
:10179000C20ED31EE41EF51EC09235056C2D70E0FE
:1017A00085E00E947A110E9428160E94710781E04C
:1017B00020C0893209F06BCC0E94DB1668CC115036
:1017C00009F0D3CE60E070E085E00E947A1183B723
:1017D000817F846083BF83B7816083BF83B781606B
:1017E00083BF889583B78E7F83BF83B78E7F83BF88
:1017F000BCCE0F900F900F900F900F90DF91CF9174
:101800001F910F91FF90EF90DF90CF90BF90AF901E
:101810009F908F907F906F905F904F900895089564
:1018200080E090E008950F931F93CF9380E090E0C5
:101830000E946B21182F81E090E00E946B21C82F3D
:1018400082E090E00E946B21082F83E090E00E94EC
:101850006B214C2F50E060E070E0762F652F542F05
:101860004427410F511D611D711D10E020E030E043
:10187000980111270027400F511F621F731F90E02E
:10188000A0E0B0E0B82FAA2799278827840F951FDA
:10189000A61FB71F85309105A105B10524F484E684
:1018A00090E0A0E0B0E080931A0390931B03A09314
:1018B0001C03B0931D0385E090E090931F03809379
:1018C0001E0310920D0310920C031092210389E065
:1018D00090E090930502809304021092F901109217
:1018E000F80110920B0310920A03E8E0F2E020E006
:1018F00030E040E00DE010E0DF0112974C93C901A9
:10190000B8010E947523DF01119752E0580F5C93D4
:101910001082128211820C9709F44F5F2F5F3F4FA4
:1019200035962433310541F70E94F50510922003C6
:10193000CF911F910F9108958F929F92AF92BF9276
:10194000CF92DF92EF92FF920F931F93CF93DF938B
:1019500082E38093B10581E090E0A0E0B0E0809365
:10196000AD059093AE05A093AF05B093B0058FEF92
:101970008093A205E0E8F7E7259134912130304CBF
:1019800009F049C0E6E9F7E7E491E0938B05E7E960
:10199000F7E7E491E0933605E8E9F7E7E491E093AF
:1019A0003705E9E9F7E7859194919093390580939C
:1019B0003805EBE9F7E78591949190933B05809387
:1019C0003A0588E080935D05EEE9F7E7E491E0935E
:1019D0005C05EFE9F7E7E491E093A205E0EAF7E7B9
:1019E0008591949190934F0580934E05E2EAF7E735
:1019F000859194919093510580935005E4EAF7E71F
:101A0000859194919093530580935205E6EAF7E708
:101A1000859194912CC09CE390938B051092360590
:101A20008093370580E293E09093390580933805E1
:101A300084ED93E090933B0580933A0588E0809392
:101A40005D0580935C058CEA9DE090934F05809343
:101A50004E058EED9DE0909351058093500584E7EF
:101A60009EE090935305809352058CE39FE0909302
:101A7000550580935405C1E0C09332056FEF70E0C7
:101A800085E00E947A1188E080933C0589E080938C
:101A90003D0587E080933E0586E080933F05D4E0D6
:101AA000D093400582E08093410581E18093420517
:101AB0000E9428168CE39FE090934D0580934C057F
:101AC000D0934B05C09356058BE080938E058DE037
:101AD00080938D0580E180938F058EE08093910542
:101AE0008FE080939005C0938805C093A005109265
:101AF000A105C093870569E675E080E895E00E943E
:101B00002813CFB7F89480912803811127C0EDECFA
:101B1000F9E08491E1EEF9E09491E82FF0E0EE0F26
:101B2000FF1FE85AF64FA591B491EC91E92321F4F7
:101B300061E08AE00E940E1161E08AE00E943E119D
:101B40008CB580618CBD8CB580648CBD61E08DE00E
:101B50000E943E1161E08BE00E943E1180912803BB
:101B60008F5F80932803CFBF8CB58F7D8CBD8CB5E4
:101B70008C7F81608CBD8DB581608DBD8CB58C6096
:101B80008CBD61E080918E050E943E1161E08091E4
:101B90008D050E943E1161E080918F050E943E11EB
:101BA0008091910518161CF461E00E943E1180910D
:101BB000900518161CF461E00E943E118091910579
:101BC000181674F460E00E940E116AE070E080E084
:101BD00090E00E94151261E0809191050E940E1123
:101BE00080918D05082E000C990BFC01ED53F64FEA
:101BF000E491F0E0EE0FFF1FEE59F64F259134917E
:101C00003093950520939405FC01E952F64FE49139
:101C1000E0939B0580918E05082E000C990BFC012A
:101C2000ED53F64FE491F0E0EE0FFF1FEE59F64F43
:101C3000259134913093930520939205FC01E9524C
:101C4000F64FE491E0939A0580919005082E000CE0
:101C5000990BFC01ED53F64FE491F0E0EE0FFF1FFE
:101C6000EE59F64F259134913093970520939605C0
:101C7000FC01E952F64FE491E0939C0580918F05B9
:101C8000082E000C990BFC01ED53F64FE491F0E0A7
:101C9000EE0FFF1FEE59F64F2591349130939905C1
:101CA00020939805FC01E952F64FE491E0939D05DD
:101CB00081E20E947C1684E10E947C1680918B0553
:101CC00087FF03C08FE780938B0580918B05806829
:101CD0000E947C1680E20E947C168CE00E947C169A
:101CE0000E949B16C1E0C0935B0584E080937F0552
:101CF00087E097E0909367058093660540E060E099
:101D000087E595E00E94991261E070E083E00E940F
:101D10007A118091B100887F81608093B100F8943E
:101D20001092800010928100109285001092840021
:101D300088E191E0909389008093880080918100F0
:101D40008860809381008091810081608093810010
:101D500080916F00826080936F0078940E94710779
:101D600080914805813019F410925C051CC0809167
:101D70004B058823C9F380E00E9411168BE097E0A1
:101D8000909365058093640510926A051092690529
:101D9000C093580589E080936D05109270051092EC
:101DA0007205109274058091A205882309F4F3C08E
:101DB00081E0809388051092870510928605109225
:101DC0004A058093A0058093A105C5EAD7E08CE081
:101DD000F82E01E115E0EE24E39499E0D92E0E945B
:101DE000AE078823E1F3FE018491882319F0C090A7
:101DF000850501C0C12C25E337E040E060E080E8C4
:101E000095E00E943C134CE04C0D26EA37E060E080
:101E100080E895E00E943C1310928905F0928A05B3
:101E200065EA77E080E895E00E94AD108091840536
:101E3000982F990F890F81958D5A809389058091EC
:101E40008505982F990F890F8195835D80938A0569
:101E50008091A30584FF03C061E377E002C06DE2D7
:101E600077E080E895E00E94D11080918405982F5A
:101E7000990F890F81958D5A8093890580918A05E4
:101E80008F5F80938A0580915C05882319F069E251
:101E900077E002C065E277E080E895E00E94D1102B
:101EA00080918405982F990F890F81958D5A809381
:101EB000890580918A058F5F80938A0561E277E0CA
:101EC00080E895E00E94D11080914805813039F575
:101ED00080915C058F5F60915D0587FD09C0082ECC
:101EE000000C990B70E06F5F7F4F0E947523682F85
:101EF00060935C0580E00E941116109365050093C5
:101F0000640510926A0510926905E0925805D09216
:101F10006D051092700510927205109274058091F3
:101F200047058130B9F08091A205482F50E060E06C
:101F300070E08090A3059090A405A090A505B090B6
:101F4000A60584169506A606B70608F46EC08F3F50
:101F500009F46BC08FEF8093A20580E00E941116F8
:101F600080E00E94111689E197E0909365058093C7
:101F7000640510926A051092690581E08093580506
:101F800099E090936D051092700510927205109271
:101F9000740580934A05C0904C05D0904D05C094BF
:101FA000D094E12CF12C0E94F0114B015C010E94B5
:101FB000F011A501940120953095409550956095BC
:101FC0007095809590950E9459239B01AC01C701A3
:101FD000B6010E9459234B015C0180913305909119
:101FE00034056C01E12CF12C0E94F011C60ED71EB5
:101FF000E81EF91EC701B601680D791D8A1D9B1DDB
:10200000611571058105910511F00E946221DF9132
:10201000CF911F910F91FF90EF90DF90CF90BF90E5
:10202000AF909F908F900C94130C80914905813054
:1020300009F0D5CE0E94DB16D2CECF92DF92EF927E
:10204000FF920F931F93CF93DF936C017A018B0163
:10205000C0E0D0E0CE15DF0589F0D8016D918D018B
:10206000D601ED91FC910190F081E02DC60109951A
:10207000892B11F47E0102C02196ECCFC701DF91BC
:10208000CF911F910F91FF90EF90DF90CF90089527
:102090006115710579F0FB0101900020E9F7319796
:1020A000AF01461B570BDC01ED91FC910280F381DF
:1020B000E02D099480E090E008954F925F926F9236
:1020C0007F92EF92FF920F931F93CF93DF93CDB741
:1020D000DEB7A1970FB6F894DEBF0FBECDBF7C016F
:1020E000FA01CB0119A2223008F42AE08E010F5D1B
:1020F0001F4F422E512C612C712CBF01A301920164
:102100000E94FE21F901CA01015011096A3014F43C
:10211000605D01C0695CD8016C93232B242B252BB7
:1021200061F7B801C7010E944810A1960FB6F89454
:10213000DEBF0FBECDBFDF91CF911F910F91FF90FA
:10214000EF907F906F905F904F900895DC01ED913C
:10215000FC910190F081E02D0994EF92FF920F9392
:102160001F93CF93DF938C017B01C0E0D0E0F70198
:10217000EC0FFD1F6491662361F0D801ED91FC9195
:102180000190F081E02DC8010995892B11F021966D
:10219000EECFCE01DF91CF911F910F91FF90EF9085
:1021A00008950F931F93CF93DF93EC010E94AD101E
:1021B0008C016DEE71E0CE010E944810800F911FDE
:1021C000DF91CF911F910F910895833081F028F412
:1021D000813099F08230A1F008958730A9F08830DD
:1021E000B9F08430D1F4809180008F7D03C080915C
:1021F00080008F7780938000089584B58F7702C028
:1022000084B58F7D84BD08958091B0008F7703C021
:102210008091B0008F7D8093B00008951F93CF937D
:10222000DF93282F30E0F901E551F64F8491F90151
:10223000E952F64FD491F901ED53F64FC491CC23F6
:10224000C9F0162F81110E94E510EC2FF0E0EE0F7F
:10225000FF1FEE59F64FA591B4918FB7F894111165
:1022600005C09C91ED2FE095E92302C0EC91ED2B88
:10227000EC938FBFDF91CF911F910895CF93DF93A0
:1022800090E0FC01E952F64F2491FC01ED53F64F2A
:102290008491882361F190E0880F991FFC01E85A2E
:1022A000F64FC591D491FC01EE59F64FA591B4912A
:1022B000611109C09FB7F894888120958223888393
:1022C000EC912E230BC0623061F49FB7F8943881F3
:1022D000822F809583238883EC912E2B2C939FBF94
:1022E00006C08FB7F894E8812E2B28838FBFDF912B
:1022F000CF9108951F93CF93DF93182FEB0161E0E7
:102300000E943E11209711F460E004C0CF3FD10538
:1023100039F461E0812FDF91CF911F910C940E1160
:10232000E12FF0E0E551F64FE491E330F9F048F4A5
:10233000E130B9F0E230A1F584B5806284BDC8BD5A
:1023400034C0E730E9F0E83019F1E43049F5809124
:102350008000806280938000D0938B00C0938A00BD
:1023600024C084B5806884BDC7BD1FC08091800033
:10237000806880938000D0938900C093880015C046
:102380008091B00080688093B000C093B3000DC00E
:102390008091B00080628093B000C093B40005C00B
:1023A000C038D1050CF0B5CFAFCFDF91CF911F91E1
:1023B00008958E3008F08E508770806480937C0082
:1023C00080917A00806480937A0080917A0086FD03
:1023D000FCCF809178002091790090E0922B0895B5
:1023E0003FB7F89480912B0390912C03A0912D037B
:1023F000B0912E0326B5A89B05C02F3F19F001967A
:10240000A11DB11D3FBFBA2FA92F982F8827820F7A
:10241000911DA11DB11DBC01CD0142E0660F771FCA
:10242000881F991F4A95D1F708958F929F92AF9276
:10243000BF92CF92DF92EF92FF926B017C010E94DC
:10244000F0114B015C01C114D104E104F104F1F07D
:102450000E94F011DC01CB0188199909AA09BB0976
:10246000883E9340A105B10570F321E0C21AD1085E
:10247000E108F10888EE880E83E0981EA11CB11CCB
:10248000C114D104E104F10419F7DDCFFF90EF90FE
:10249000DF90CF90BF90AF909F908F9008951F9244
:1024A0000F920FB60F9211242F933F938F939F9308
:1024B000AF93BF938091240390912503A0912603AD
:1024C000B091270330912A0323E0230F2D3720F406
:1024D0000196A11DB11D05C026E8230F0296A11D7E
:1024E000B11D20932A038093240390932503A09386
:1024F0002603B093270380912B0390912C03A09186
:102500002D03B0912E030196A11DB11D80932B03C5
:1025100090932C03A0932D03B0932E03BF91AF9102
:102520009F918F913F912F910F900FBE0F901F9011
:10253000189550E0DA01AA0FBB1FA80FB91F1F960C
:102540003C911F9750962C915097E32FF22FE60F56
:10255000F11DE60FF11D6591749190967C936E9339
:102560005F97FB0125913491FC013481329F202D2E
:102570001124DC01A40FB51F91962C939197FB01B8
:1025800085919491E92FF0E0822F90E0E817F90708
:1025900020F4FB0185919491292F239F202D112454
:1025A00092962C93089580913105882319F080919B
:1025B000300501C080E08093B40008951F920F920F
:1025C0000FB60F9211242F933F934F935F936F9306
:1025D0007F938F939F93AF93BF93EF93FF936091FC
:1025E0002F05662321F1809129038F5F80932903B2
:1025F000909122038917D8F09091310581E08927C5
:10260000809331051092290380912303882369F078
:102610008091000193E4899F802D1124895B809330
:1026200000010E946923909330050E94D312FF910C
:10263000EF91BF91AF919F918F917F916F915F913A
:102640004F913F912F910F900FBE0F901F901895B3
:10265000DC01FB0184918F5F14968C931497319663
:10266000E491EF5F1596EC9315976E5F7F4F5F9641
:102670007C936E935E9708954F925F926F927F92D4
:102680008F929F92AF92BF92CF92DF92EF92FF9282
:102690000F931F93CF93DF93F901C4903196549118
:1026A000EC0108A164350CF018C10C2C000CDD08FD
:1026B000A62F062E000CBB0B7D01EC0CFD1C1E147E
:1026C0001F040CF00AC140330CF007C1A52E842E64
:1026D000042E000C9908F401E50FF11D57FDFA9541
:1026E0001E161F060CF0F9C02E5F3F4FE60127961D
:1026F000D7FD279673E0D595C7957A95E1F747FF03
:102700000AC0A52EA40EC89DA001C99D500D11247C
:10271000241B350B40E0EA2D0A2C000CFF0BE40FC4
:10272000F11D47FDFA95F1971CF050E3A52EA41A70
:1027300067FD60E0F701E535F10514F0E4E5F0E050
:102740007E2FFC01D484D426862F062E000C990BF4
:10275000FC01EA1BFB0BDF017F01F7E0EF22FF2406
:10276000E0E8F0E002C0F595E795EA94E2F71E2F65
:10277000B7FD179653E0B595A7955A95E1F72A0F3F
:102780003B1FE42FE77051E001C0550FEA95EAF7CF
:10279000459545954595B4E54B02800D911D112455
:1027A000815D9C4FC12C0A2C000CBB08992493948A
:1027B0002E015524EC2DF0E0EA15FB050CF08DC040
:1027C000F90144910130E1F47C01A12F862E881A91
:1027D000B82DBE0DB71708F077C0B42FBA2321F07B
:1027E000E701B881B52BB883B0E0B595A7951097F0
:1027F00019F431964491A0E8DFEFED1AFD0AE8CF15
:1028000001111FC0752E70947C01A12FF901862E35
:10281000881AB82DBE0DB71708F056C0B42FBA23CA
:1028200021F0E701B881B721B883B0E0B595A7954D
:10283000109719F431964491A0E8DFEFED1AFD0AE4
:10284000E8CF033031F07C01A12FF901862E881AE0
:1028500037C0752E7094862E7C01A12FF901871642
:10286000D8F4B42FBA2359F0E701B881682C6D244D
:1028700060FE02C0B52B02C0B721E701B883B0E00B
:10288000B595A795109719F431964491A0E88394D3
:10289000DFEFED1AFD0AE3CFD92416C0B42FBA2317
:1028A00021F0E701B881B527B883B0E0B595A795C9
:1028B000109719F431964491A0E8DFEFED1AFD0A64
:1028C000B82DBE0DB71750F3550F19F48C5A9F4F02
:1028D00051E0C394240D351D6DCFDF91CF911F9131
:1028E0000F91FF90EF90DF90CF90BF90AF909F90AF
:1028F0008F907F906F905F904F900895BF92CF928E
:10290000DF92EF92FF920F931F93CF93DF931F926B
:10291000CDB7DEB77C01D62EC42E002E000C110BD5
:10292000040F111D47FD1A954C2D0C2C000C550B56
:10293000401751077CF4B12CB21654F46B2D6D0D79
:102940004C2DC70129830E943405B3942981F4CF0B
:10295000C394EACF0F90DF91CF911F910F91FF9019
:10296000EF90DF90CF90BF9008956F927F928F92FB
:102970009F92AF92BF92CF92DF92EF92FF920F930E
:102980001F93CF93DF93EC016A3019F42D81988562
:10299000A1C06D3009F4A4C01885BA84D98488A078
:1029A00083E58D150CF47FC08FE28B150CF47BC092
:1029B0008C8190E00197189F9001199F300D112490
:1029C000C9018D0D911DD7FC9A95181619060CF0AA
:1029D0006AC08D81819FC00111248B0D911DB7FCB0
:1029E0009A95181619060CF05EC09D2CCD2CE62E7B
:1029F000F12CEC2DED190E2E000CFF0B8C8190E0CC
:102A0000E817F9070CF04EC00197E817F90779F0BD
:102A1000E89E9001E99E300DF89E300D1124E20FE2
:102A2000F31F8E8D9F8DE80FF91F749001C0712CDC
:102A30006B2CAB2C2A2D2B19022E000C330B8D8105
:102A400090E0281739075CF570FE10C0113031F4A2
:102A50004A2D6C2DCE010E9434051DC0012F212F5F
:102A6000462D692DCE010E947E1415C089A198A122
:102A7000891789F088A3113031F44A2D6C2DCE01CD
:102A80000E94340507C0012F212F462D692DCE014C
:102A90000E947E1488A27694A394610ECBCFC39437
:102AA000910EA7CF88A228853C818985329F800D11
:102AB000112489879F81992399F0082E000C990B86
:102AC00044E550E0239F4019510911244817590744
:102AD0003CF49D818A85299F800D11248A8719865F
:102AE00081E090E0DF91CF911F910F91FF90EF90E7
:102AF000DF90CF90BF90AF909F908F907F906F901E
:102B00000895CF93DF93EC0188818B3008F08AE041
:102B100080936D0540E06A8187E595E00E949912F7
:102B20002E8180915B059C81989F902D112490931C
:102B30007005209371052A859885989F902D112402
:102B400090937205209373052E859C85989F902DF8
:102B5000112490937405209375059A8928892093F0
:102B60006B05989F802D112480936C0510927C0535
:102B700010927B0510927A0581E080936E05809318
:102B8000310510926F05DF91CF910895CF92DF92BA
:102B9000EF92FF920F931F93CF93DF936B01770F09
:102BA000EE08FF08F7FE1BC0EC016DE20E94A610C4
:102BB0008C0144275527BA014C195D096E097F091C
:102BC0002AE0CE010E945D10800F911FDF91CF910E
:102BD0001F910F91FF90EF90DF90CF9008952AE022
:102BE000B701A601DF91CF911F910F91FF90EF9058
:102BF000DF90CF900C945D10811112C010926E0581
:102C000010926C0510927B0510927A0510926F0558
:102C10001092300510922F05109231050C94D312AA
:102C20000895811114C010926E0510926C051092D7
:102C30007B0510927A0510926F0510923005109264
:102C40002F05109231050E94D31210925805089555
:102C5000CF92DF92EF92FF920F931F93CF93DF9368
:102C6000CCE3D5E003E415E0FF24FA9497E0E92EE5
:102C7000E00E62E088810E943E11288130E0F90177
:102C8000E551F64F8491F901E952F64FC490F901EC
:102C9000ED53F64FD490DD2071F081110E94E510C4
:102CA000ED2DF0E0EE0FFF1FE754F64FA591B49124
:102CB000EC91EC21B1F4F80180818F5F808360E0BA
:102CC00088810E943E1121960F5F1F4FE012D1CFE5
:102CD000DF91CF911F910F91FF90EF90DF90CF90F8
:102CE0000895F8018081882371F3F8018F3F11F472
:102CF0001082E5CFF082E3CFCF93C82FF89460E045
:102D000080918F050E940E118091900518161CF479
:102D100060E00E940E11CEBD00000DB407FEFDCF95
:102D20008EB58091900518161CF461E00E940E117A
:102D30007894CF9108950F931F93CF9380918C0532
:102D40008F5F80938C050FE213E0C0E08C2F8064CE
:102D50000E947C1680E80E947C1661E080918F05BD
:102D60000E940E118091900518161CF460E00E94DC
:102D70000E1180E090E0F801E80FF91F20812EBDD0
:102D800000000DB407FEFDCF2EB5019684359105E8
:102D900091F78091900518161CF461E00E940E11C5
:102DA000CF5F0C5A1F4FC63089F680E4CF911F9138
:102DB0000F910C947C1688EF91E0EFE2F3E0DF01D5
:102DC0009C011D9221503040E1F71092890510922C
:102DD0008A0561E979E080E895E00E94AD100E94E3
:102DE0009B168CB583608CBD8DB58E7F8DBD80EFBD
:102DF00091E0EEEFFFE30995109286056CE679E02D
:102E000080E895E00E94D1100E949B160E9428162F
:102E100080914705813039F062E370E080E090E016
:102E20000E941512F3CF0895AF92BF92CF92DF9216
:102E3000EF92FF920F931F93CF93DF93C82ED12C65
:102E4000E601CE5CDA4F9DA1992309F44CC07E01C6
:102E50009FEFE91AF90AF70195A1911144C09EA5C7
:102E60008601000F111F0E5C1A4FF80134A525A52D
:102E7000E32FF22FE90FF11DE90FF11D2591349198
:102E80002F3FFFEF3F0711F41DA22DC039ABF60114
:102E9000EE0FFF1FE45CFA4F3327220F331F05A00C
:102EA000F6A1E02DE20FF31FA590B490811117C099
:102EB0000E941116F801B3AAA2AAF601EE0FFF1F95
:102EC000EC5BFA4F16A215A281E0F70185A389E019
:102ED0008BAF1EAEFE017B9615A2329615A22996E7
:102EE0008DA18F5F8DA3DF91CF911F910F91FF90E7
:102EF000EF90DF90CF90BF90AF900895AF92BF92C8
:102F0000CF92DF92EF92FF920F931F93CF93DF93B5
:102F1000182F062FC1E0D3E08AEFD82E9EEFE92EBE
:102F2000842F8470C82E842F8270B82E842F8870CE
:102F3000A82E4170F42E8C2F880F8F5FE80ECC20C6
:102F400081F04D2F400F6C2F610F80E895E00E94BB
:102F500034054C2F400F6D2F610F80E895E00E94E3
:102F60003405BB2081F0402F4D1B6C2F610F80E892
:102F700095E00E943405402F4C1B6D2F610F80E8B7
:102F800095E00E943405AA2081F04C2F400F612F5C
:102F90006D1B80E895E00E9434054D2F400F612F96
:102FA0006C1B80E895E00E943405FF2081F0402FE3
:102FB0004C1B612F6D1B80E895E00E943405402F6B
:102FC0004D1B612F6C1B80E895E00E943405CD17E6
:102FD00044F4E7FC04C0D150D394D394ED0CCF5FFC
:102FE000AACFDF91CF911F910F91FF90EF90DF90CB
:102FF000CF90BF90AF9008950F931F93CF93DF931F
:10300000182F062FD42FC0E0CD174CF44C2F400FB3
:10301000612F80E895E00E943405CF5FF5CFDF9106
:10302000CF911F910F910895109283051092820500
:103030008DE191E0909381058093800508957894C7
:1030400084B5826084BD84B5816084BD85B58260AD
:1030500085BD85B5816085BD80916E00816080935E
:103060006E001092810080918100826080938100C7
:1030700080918100816080938100809180008160D7
:10308000809380008091B10084608093B100809132
:10309000B00081608093B00080917A00846080935A
:1030A0007A0080917A00826080937A0080917A0021
:1030B000816080937A0080917A00806880937A00A2
:1030C0001092C1000E949C0C94E3C92ED12CE12CDB
:1030D000F12C25E0722E35E0332EC5E0D0E08EE1F4
:1030E000282E0E94AE07882309F44EC38091210345
:1030F00081118AC1A0902003A11062C08091440573
:10310000813009F074C080911E0390911F038931B2
:10311000910529F174F485309105C1F00A9791F574
:1031200089E190E090931F0380931E0385EC91E06A
:1031300027C082339105E1F08436910519F5D093CB
:103140001F03C0931E0389E891E01AC08AE090E053
:1031500090931F0380931E0389ED91E011C082E3D9
:1031600090E090931F0380931E0381EB91E008C0D1
:1031700084E690E090931F0380931E038DE991E015
:103180000E94811580911E0390911F03092E000C4F
:10319000AA0BBB0B40911A0350911B0360911C03B7
:1031A00070911D03481759076A077B0704F5D093F0
:1031B0001F03C0931E0389E891E00E94811517C088
:1031C00081E0A8124DC080914305813009F0E1C330
:1031D000809118039091190301971816190614F09D
:1031E00081E090E09093190380931803D2C38091FB
:1031F00046058130A9F580911E0390911F03893106
:10320000910509F4B4C30CF0A2C38530910509F00F
:1032100094C384E690E090931F0380931E038DE98E
:1032200091E00E94811580911E0390911F03092E49
:10323000000CAA0BBB0B40911A0350911B03609129
:103240001C0370911D03481759076A077B0744F454
:10325000D0931F03C0931E0389E891E00E9481155B
:1032600080914805813009F054C0A11095C20E9498
:10327000F50580911E0390911F038C01092E000C0F
:10328000220B330B40911A0350911B0360911C03D6
:1032900070911D03401B510B620B730B40931A037B
:1032A00050931B0360931C0370931D0390930D03B5
:1032B00080930C0310920B0310920A0310921903CF
:1032C000109218031EE0812E13E0912E00E010E012
:1032D000AA24A3940E945D21A70196010E94952132
:1032E000769EF001779EF00D1124EA5FFD4F8281FA
:1032F0008111F0CFA282D401ED93FD934D010B5FBC
:103300001F4F148303830931110521F781E0809356
:10331000200380914905813009F076C0C6C28091B2
:103320004805813009F046C010E00E94AE078823AE
:10333000E1F310928A0510928905113009F4C5C293
:1033400060EC74E080E895E00E94D1106AEA74E0D5
:1033500080E895E00E94D11064E974E080E895E08F
:103360000E94D11063E874E080E895E00E94D110DB
:1033700067E774E080E895E00E94D11066E774E0AA
:1033800080E895E00E94D11069E674E080E895E05D
:103390000E94D11061E674E080E895E00E94D110AF
:1033A00080914705813009F4BDC280914905813083
:1033B00009F0BBCF0E94AE078823E1F3E2E1E0937E
:1033C0008A050093890565E075E080E895E00E9434
:1033D000D11020928A0565EF74E080E895E00E94A4
:1033E000D11063EE74E080E895E00E94D11064EDA6
:1033F00074E080E895E00E94D1108091470581300B
:1034000009F059C20E949C0C80911A0390911B03F1
:10341000A0911C03B0911D030597A105B10574F59A
:103420008091200381112AC089E391E00E948115D7
:103430001AE00E94AE078823E1F3F2E1F0938A05D7
:10344000109389056FEE73E080E895E00E94D1103B
:103450008EE180938A056FED73E080E895E00E942D
:10346000D11063ED73E080E895E00E94D110809167
:103470004705813009F059C20E949C0C80911E03BF
:1034800090911F03092E000CAA0BBB0B40911A034D
:1034900050911B0360911C0370911D03481759073D
:1034A0006A077B0724F4D0931F03C0931E03809107
:1034B00020038230A1F581E080932103E0910E0387
:1034C000F0910F03838194811816190644F1E0915D
:1034D0001003F09111038381948118161906FCF0F2
:1034E000E0911203F0911303838194811816190659
:1034F000B4F0E0911403F0911503838194811816C0
:1035000019066CF0E0911603F09117038381948102
:103510001816190624F010922103109220038091AE
:103520002003813089F580932103E0910E03F0910F
:103530000F03838194811816190634F1E09110036A
:10354000F09111038381948118161906ECF0E09133
:103550001203F09113038381948118161906A4F0C5
:10356000E0911403F09115038381948118161906D4
:103570005CF0E0911603F091170383819481181693
:10358000190614F01092210310928A0583E08093AB
:1035900089056BEC73E080E895E00E94AD108090A7
:1035A0001A0390901B03A0901C03B0901D03B7FE5C
:1035B0000EC06DE280E895E00E94A61044275527D2
:1035C000BA01481959096A097B092AE003C02AE0AF
:1035D000B501A40180E895E00E945D1017E010930A
:1035E0008A0583E08093890563EC73E080E895E0C9
:1035F0000E94AD1060911E0370911F0380E895E05A
:103600000E94C615E0910402F0910502E930F1052F
:1036100019F40E9422069DC08091F8019091F90151
:103620004497ACF180910E0390910F0340911003E9
:1036300050911103DC0113962D913C911497DA01FE
:1036400013968D919C911497280F391FA091120306
:10365000B091130313968D919C911497280F391FE5
:10366000A0911403B091150313968D919C9114971A
:10367000280F391FA0911603B091170313968D914F
:103680009C911497820F931F181619061CF40E9420
:1036900022064CC084E180938A0510938905E930A5
:1036A000F10510F5EC5CFF4F0C9489236FE873E093
:1036B00017C065E873E014C064E773E011C06AE600
:1036C00073E00EC063E673E00BC067E573E008C00B
:1036D00067E473E005C067E373E002C06AE273E089
:1036E00080E895E00E94D11087E0809389058CE105
:1036F00080938A0564E273E080E895E00E94AD1053
:1037000060910C0370910D0380E895E00E94C6154E
:103710006DE173E080E895E00E94AD1060910A03CE
:1037200070910B0380E895E00E94C6158091F80126
:103730009091F90101969093F9018093F80189978E
:1037400044F085E291E00E9481151092F9011092F7
:10375000F80180912003811109C08AE280938A05D3
:1037600083E0809389056FEA73E00AC0813061F4D9
:103770008AE280938A0583E08093890560EA73E09A
:1037800080E895E00E94AD1080E090E0892B09F47C
:10379000A8CC0E940000A3CCB1E0AB12BACD82E06D
:1037A000809320031092190310921803FEE04F2E0D
:1037B000F3E05F2E820188248394912CB3E06B2E7A
:1037C000AA24A394D801ED91FC918281813009F55E
:1037D00062820E945D21A70196010E949521769E3A
:1037E000F001779EF00D1124EA5FFD4FDF01129684
:1037F00082818111EECFAC92D801ED93FC93389C7D
:10380000C001399C900D112494838383BFEF8B1AE0
:103810009B0A0E5F1F4FE3E008311E0799F60AEF7F
:1038200011E0F801D2018D919D912D01DC011196DD
:103830008C9190E081939193B8E14B16B3E05B06D5
:1038400089F72BE235E042E050E065E070E08AEF76
:1038500091E00E94681F0E948C05A82E882309F41D
:10386000D6C08091FA019091FB010A9709F0CFC070
:103870008091FC019091FD010B9709F0C8C08091E7
:10388000FE019091FF010C9709F0C1C080910002E8
:10389000909101020D9709F0BAC0809102029091B7
:1038A00003020E9709F0B3C00FC181E691E00E94B8
:1038B000811504E17FCD80914905813009F02FCD3C
:1038C0008DE491E00E9481159FCD62E574E080E86F
:1038D00095E00E94D1106CE374E080E895E00E94CE
:1038E000D1106DE274E080E895E00E94D11067E1AC
:1038F00074E080E895E00E94D11066E174E080E811
:1039000095E00E94D11065E174E080E895E00E94A6
:10391000D11068E074E080E895E00E94D11060E08A
:1039200074E03ACD811B182F40CD8091480581303D
:1039300009F07FCD0E94130CA1CD0A9709F073CC3A
:10394000D0931F03C0931E0389E891E06ACC8233B1
:103950009105B1F08436910509F065CC82E390E0E1
:1039600090931F0380931E0381EB91E05ACC8AE071
:1039700090E090931F0380931E0389ED91E051CC5A
:1039800089E190E090931F0380931E0385EC91E002
:1039900048CC80914505813089F48091180390913D
:1039A00019030196863091052CF4909319038093A6
:1039B000180304C0D0931903C093180390904705CF
:1039C000B1E09B124DCC8091180390911903181609
:1039D00019060CF045CC880F991FFC01E45FFC4FE1
:1039E000008111810115110509F43ACC85E791E0B8
:1039F0000E948115D80112968C911297823019F489
:103A000012969C922DCC82E0F801828329CC0E94F0
:103A1000AF05882309F481C0AA2009F47EC0209153
:103A20000C0330910D0342E3429FC001439F900D70
:103A3000112490930B0380930A03092E000CAA0B08
:103A4000BB0B40911A0350911B0360911C037091B2
:103A50001D03840F951FA61FB71F80931A03909311
:103A60001B03A0931C03B0931D0387E090E0909389
:103A700005028093040280901A0390901B03A0908B
:103A80001C03B0901D03682D80E090E00E9473211C
:103A90009927B7FC9A958B2D7A2D692D81E090E0BE
:103AA0000E947321B501992777FD9095892F82E0B7
:103AB00090E00E9473216B2D77278827992783E058
:103AC00090E00E94732125CC20910C0330910D03CE
:103AD0004AEF429FC001439F900D112490930B0326
:103AE00080930A03092E000CAA0BBB0B40911A030A
:103AF00050911B0360911C0370911D03840F951F4F
:103B0000A61FB71F80931A0390931B03A0931C0357
:103B1000B0931D0388E090E0AACF4091FA01509144
:103B2000FB012091FC013091FD016091FE0170913B
:103B3000FF014217530751F44617570739F4E09134
:103B40000002F09101024E175F0799F02617370720
:103B5000C9F5E0910002F09101022E173F0709F02C
:103B60006FC0E0910202F09103022E173F0709F0A7
:103B70006AC020910C0330910D0349E1429FC001BE
:103B8000439F900D112490930B0380930A03092EF9
:103B9000000CAA0BBB0B40911A0350911B036091C0
:103BA0001C0370911D03840F951FA61FB71F8093E0
:103BB0001A0390931B03A0931C03B0931D0386E08C
:103BC00090E055CF42175307F1F5E0910002F091D4
:103BD00001026E177F07B9F5A0910002B0910102B2
:103BE000E0910202F0910302AE17BF0761F5209148
:103BF0000C0330910D0349E0429FC001439F900D9B
:103C0000112490930B0380930A03092E000CAA0B36
:103C1000BB0B40911A0350911B0360911C037091E0
:103C20001D03840F951FA61FB71F80931A0390933F
:103C30001B03A0931C03B0931D0385E090E017CFF6
:103C40004217530749F2AA2049F120910C03309101
:103C50000D0346E0429FC001439F900D11249093B5
:103C60000B0380930A03092E000CAA0BBB0B409197
:103C70001A0350911B0360911C0370911D03840F64
:103C8000951FA61FB71F80931A0390931B03A09341
:103C90001C03B0931D0384E090E0E9CE882339F142
:103CA00080910C0390910D03880F991F880F991F25
:103CB00090930B0380930A03092E000CAA0BBB0BF5
:103CC00040911A0350911B0360911C0370911D03D6
:103CD000840F951FA61FB71F80931A0390931B0391
:103CE000A0931C03B0931D0383E090E0C0CEEAEFE5
:103CF000F1E081919191A081B1818A179B0729F40C
:103D0000A281B3818A179B0729F082E0E030F8078F
:103D100081F728C080910C0390910D039C01220F24
:103D2000331F820F931F90930B0380930A03092E76
:103D3000000CAA0BBB0B40911A0350911B0360911E
:103D40001C0370911D03840F951FA61FB71F80933E
:103D50001A0390931B03A0931C03B0931D0382E0EE
:103D600090E085CE4217530709F06CC080910002A5
:103D70009091010268177907E9F0209100023091D3
:103D8000010280910202909103022817390791F0F5
:103D9000D8018D919D918D012D913C9182179307B2
:103DA00011F40B9764F5B2E002301B0789F789E044
:103DB00090E05DCE80910C0390910D03880F991FC8
:103DC00090930B0380930A03092E000CAA0BBB0BE4
:103DD00040911A0350911B0360911C0370911D03C5
:103DE000840F951FA61FB71F80931A0390931B0380
:103DF000A0931C03B0931D0381E090E038CE809126
:103E00000C0390910D0390930B0380930A03092EEA
:103E1000000CAA0BBB0B40911A0350911B0360913D
:103E20001C0370911D03840F951FA61FB71F80935D
:103E30001A0390931B03A0931C03B0931D0380E00F
:103E400090E015CE2617370709F0A2CF96CFDC01F8
:103E5000FB018C9190819D938193415051091416DF
:103E60001506BCF30895A0E0B0E0E9E3FFE10C948F
:103E7000D121D82FC92F6B018A017901F901099548
:103E8000B80197FF0FC0C601F701099597FF02C05F
:103E9000C60119C0B8018D2F9C2FF701099597FD18
:103EA0000EC00FC0C601F70109951816190684F354
:103EB000B8018D2F9C2FF701099597FD02C0C8010D
:103EC00002C08D2F9C2FCDB7DEB7E8E00C94ED211A
:103ED000AAE0B0E0EEE6FFE10C94C7218C017B0183
:103EE0005A87498769015195419551095E834D83F0
:103EF00029853A85200F311F3A83298337E0E3165D
:103F0000F10478F589809A8049855A85E49EC0013C
:103F1000E59E900DF49E900D11247801E80EF91E97
:103F20008E149F0408F077C1340106151705A0F41C
:103F3000530169857A85A61AB70AB301C501F6014E
:103F400009951816190644F449855A85B501C30127
:103F50000E94271F3501E9CF29853A85820E931EDD
:103F6000DFCFC7019695879549855A85849F500173
:103F7000859FB00C949FB00C1124A00EB11EB70108
:103F8000615071097C836B8377E0E716F10409F4D3
:103F90004CC08B819C81849F3001859F700C949FC5
:103FA000700C1124600E711E99E2E916F104A8F15B
:103FB000C70123E0969587952A95E1F7849F4001F4
:103FC000859F900C949F900C11241401220C331C9B
:103FD000A801420D531DB801680D791D9601C80155
:103FE0000E94331F2C01A501480D591D9194819405
:103FF00091089601B501C501880D991D0E94331FD6
:104000005C01B301680D791D9601A301C3018219FA
:1040100093090E94331F3C0101C028019601A301AE
:10402000B501C2010E94331F5C0149855A85B50163
:10403000C8010E94271F89809A804B815C81698515
:104040007A85469F9001479F300D569F300D112471
:104050003A8329833901600E711E23015401140132
:1040600020E030E06A147B0408F43FC0B801C501C9
:104070002F833887F60109952F8138851816190680
:10408000A4F1892B61F449855A85B501C1010E94CB
:10409000271F89859A85280E391E21E030E0E985A1
:1040A000FA85AE0EBF1EDECFB801C3012F8338875D
:1040B000F6010995A30169857A85461B570B5C8338
:1040C0004B832F81388597FD14C0892B61F4498576
:1040D0005A85B201C3010E94271F29853A85421AD9
:1040E000530A21E030E06B807C806A147B04E0F6A8
:1040F0000FC049855A85B301C5010E94271F498514
:104100005A85A40EB51E6B807C8021E030E0AACFDA
:10411000232B69F5E985FA85EE9EC001EF9E900D8F
:10412000FE9E900D11247801E80EF91E8E149F0456
:1041300008F071C0340106151705A0F45301298554
:104140003A85A21AB30AB301C501F60109951816FA
:10415000190644F449855A85B501C3010E94271FF9
:104160003501E9CF29853A85820E931EDFCF8981FB
:104170009A814D815E81841B950BB801680F791F70
:104180007A8369837501E218F308A101401B510B82
:10419000E416F5060CF4A7011416150634F4B5015F
:1041A000641B750BC8010E94271F420186189708DF
:1041B00049815A814419550989859A85481B590BAB
:1041C0008416950608F4A401141615063CF46981BA
:1041D0007A81641B750BC5010E94271FE985FA854A
:1041E000EE15FF0548F4C701BF010E948121960129
:1041F000AF01C8010E94681F29853A852815390535
:1042000050F409811A8108191909C401B9010E94E1
:1042100081217B016DCE2A96E2E10C94E3218F92FD
:104220009F92AF92BF92CF92DF92EF92FF92CF9385
:10423000DF93EC01688179818A819B816115710529
:104240008105910521F464E279ED8BE597E02DE19C
:1042500033EF41E050E00E94952149015A019B0152
:10426000AC01A7EAB1E40E94B4216B017C01ACEE81
:10427000B4EFA50194010E94C221DC01CB018C0D99
:104280009D1DAE1DBF1DB7FF03C00197A109B0481A
:1042900088839983AA83BB83BC01CD019F77DF917B
:1042A000CF91FF90EF90DF90CF90BF90AF909F9015
:1042B0008F9008950E940F21089581E091E00E945F
:1042C0000F2108956093010170930201809303010F
:1042D000909304010895F999FECF92BD81BDF89A9B
:1042E000992780B50895262FF999FECF1FBA92BD60
:1042F00081BD20BD0FB6F894FA9AF99A0FBE0196C7
:104300000895AA1BBB1B51E107C0AA1FBB1FA6171C
:10431000B70710F0A61BB70B881F991F5A95A9F76E
:1043200080959095BC01CD010895052E97FB1EF454
:1043300000940E94AC2157FD07D00E94FE2107FC8B
:1043400003D04EF40C94AC215095409530952195B6
:104350003F4F4F4F5F4F08959095809570956195B1
:104360007F4F8F4F9F4F08950E942022A59F900D51
:10437000B49F900DA49F800D911D11240895B7FF47
:104380000C94B4210E94B421821B930B08952F92A8
:104390003F924F925F926F927F928F929F92AF92D5
:1043A000BF92CF92DF92EF92FF920F931F93CF9322
:1043B000DF93CDB7DEB7CA1BDB0B0FB6F894DEBFB9
:1043C0000FBECDBF09942A88398848885F846E84DF
:1043D0007D848C849B84AA84B984C884DF80EE8029
:1043E000FD800C811B81AA81B981CE0FD11D0FB632
:1043F000F894DEBF0FBECDBFED010895A1E21A2EE5
:10440000AA1BBB1BFD010DC0AA1FBB1FEE1FFF1F78
:10441000A217B307E407F50720F0A21BB30BE40BC8
:10442000F50B661F771F881F991F1A9469F760950F
:104430007095809590959B01AC01BD01CF010895C9
:10444000A29FB001B39FC001A39F700D811D1124D5
:10445000911DB29F700D811D1124911D08950E9420
:10446000A32288F09F5798F0B92F9927B751B0F041
:10447000E1F0660F771F881F991F1AF0BA95C9F7E8
:1044800014C0B13091F00E94BD22B1E008950C94A7
:10449000BD22672F782F8827B85F39F0B93FCCF35A
:1044A000869577956795B395D9F73EF49095809565
:1044B000709561957F4F8F4F9F4F0895E89409C085
:1044C00097FB3EF490958095709561957F4F8F4F47
:1044D0009F4F9923A9F0F92F96E9BB279395F6955D
:1044E000879577956795B795F111F8CFFAF4BB0FDB
:1044F00011F460FF1BC06F5F7F4F8F4F9F4F16C03F
:10450000882311F096E911C0772321F09EE8872FC8
:10451000762F05C0662371F096E8862F70E060E084
:104520002AF09A95660F771F881FDAF7880F9695FD
:10453000879597F9089557FD9058440F551F59F0E6
:104540005F3F71F04795880F97FB991F61F09F3F80
:1045500079F087950895121613061406551FF2CFA9
:104560004695F1DF08C0161617061806991FF1CFF9
:1045700086957105610508940895E894BB27662720
:104580007727CB0197F908950E94D7220C944823EE
:104590000E943A2338F00E94412320F0952311F025
:1045A0000C9431230C94372311240C94BE220E94C6
:1045B0009B2270F3959FC1F3950F50E0551F629FAA
:1045C000F001729FBB27F00DB11D639FAA27F00D6C
:1045D000B11DAA1F649F6627B00DA11D661F829F93
:1045E0002227B00DA11D621F739FB00DA11D621F78
:1045F000839FA00D611D221F749F3327A00D611D95
:10460000231F849F600D211D822F762F6A2F112476
:104610009F5750409AF0F1F088234AF0EE0FFF1FA9
:10462000BB1F661F771F881F91505040A9F79E3F00
:10463000510580F00C9431230C94BE225F3FE4F3CB
:10464000983ED4F3869577956795B795F795E79556
:104650009F5FC1F7FE2B880F911D9695879597F95F
:10466000089597F99F6780E870E060E008959FEFF4
:1046700080EC089500240A941616170618060906F9
:10468000089500240A9412161306140605060895C8
:10469000092E0394000C11F4882352F0BB0F40F450
:1046A000BF2B11F460FF04C06F5F7F4F8F4F9F4F90
:1046B0000895DB018F939F930E94B421BF91AF9126
:1046C000A29F800D911DA39F900DB29F900D11246C
:1046D0000895991B79E004C0991F961708F0961B5E
:1046E000881F7A95C9F78095089597FB072E16F4D1
:1046F000009407D077FD09D00E94812107FC05D0E6
:104700003EF4909581959F4F0895709561957F4FE8
:104710000895EE0FFF1F0590F491E02D0994F89491
:02472000FFCFC9
:104722000101000000090000000000000001000279
:1047320000000000000000020000000000B5141D8F
:1047420010100C0F0C09000000000000000300050F
:104752000000000000100008000900000000000036
:10476200000200FEFF000000000600040009000035
:1047720000000000000400FBFF000000003C0006F7
:104782000009000000000000000400050000000015
:1047920000370006000900000000000000010002CE
:1047A20000000000000000040009000000000000FA
:1047B20000010002000000000006000400090000E1
:1047C200000000000001000200000000000E0004D2
:1047D20000090000000000000001000200000000CB
:1047E200000C0004000900000000000000010002AB
:1047F20000000000000A00040009000000000000A0
:10480200000100020000000000080004000D0A0080
:084812004C4F414445520000E7
:00000001FF
